:04000000EEEF07F028
:08000800046ED8CF05F0E0CF33
:1000100006F00001E9CF0CF0EACF07F0E1CF08F0DD
:10002000E2CF09F0D9CF0AF0DACF0BF0F3CF12F01C
:10003000F4CF13F0FACF14F0F5CF15F0F6CF16F099
:10004000F7CF17F000C00EF001C00FF002C010F0A3
:1000500003C011F09DAA30EF00F09EBA04EF02F049
:100060000EC000F00FC001F010C002F011C003F08C
:100070000CC0E9FF07C0EAFF078E08C0E1FF09C016
:10008000E2FF0AC0D9FF0BC0DAFF12C0F3FF13C0B2
:10009000F4FF14C0FAFF15C0F5FF16C0F6FF17C035
:1000A000F7FF045006C0E0FF05C0D8FF1000F76A54
:1000B000BE0FF66E000EF7220900F55012007B000D
:1000C00082008900900097009E00A500AC00B3005C
:1000D000FB51FD19800BFF6FFBAF05D0FA1FFB1F13
:1000E000FA2BD8B4FB2BFDAF05D0FC1FFD1FFC2B5A
:1000F000D8B4FD2BFA51FC03F3CF01F0F4CF00F09C
:10010000FD03F3500026FB51FC03F3500020026E68
:10011000FFAF05D0011E021E012AD8B4022AFCEF4F
:1001200000F0F86BF66B0A0EF76FF56BF46BF2519B
:10013000F31104E1000E016E026EE0D0F851F82BCD
:10014000F225E96E000EF321EA6EEFCFF9F0F951D6
:100150002D080CE1010EF66FF851F82BF225E96E2F
:10016000000EF321EA6EEFCFF9F00CD0F9512B0815
:1001700009E1F851F82BF225E96E000EF321EA6E41
:10018000EFCFF9F0F9512F08D8B0AAD0F9513908BA
:10019000D8A0A6D0F95130081EE1F851F225E96E39
:1001A000000EF321EA6EEF50780809E0F851F225CD
:1001B000E96E000EF321EA6EEF5058080CE1100EC4
:1001C000F76FF82BF851F82BF225E96E000EF321AA
:1001D000EA6EEFCFF9F0F7510A0820E1F9512F0844
:1001E0001CE2F951390819E3FB6B0A0EFA6FF5C0EE
:1001F000FDF0F4C0FCF06CD7300EF95D0124F46F13
:10020000000E0220F56FF851F82BF225E96E000E72
:10021000F321EA6EEFCFF9F0E1D762D0F751100881
:100220005FE1F951600806E2F9517A0803E3F951F8
:10023000DF0B01D0F951F96FF9512F0803E2F951A1
:10024000390806E2F95140084BE2F951460848E303
:10025000F9512F081AE2F951390817E3F435FA6F0A
:10026000F535FB6FFA37FB37FA37FB37FA37FB37D1
:10027000F00EFA17300EF95DFA25016E000EFB2123
:10028000036E01C0F4F0F56F16D0F435FA6FF53552
:10029000FB6FFA37FB37FA37FB37FA37FB37F00ECD
:1002A000FA17410EF95D0A0FFA25016E000EFB21C7
:1002B00001C0F4F0F56FF851F82BF225E96E000E4D
:1002C000F321EA6EEFCFF9F0F951600806E2F95137
:1002D0007A0803E3F951DF0B01D0F951F96FACD77C
:1002E000F7510A0807E1F62D05D0F41FF51FF42B8E
:1002F000D8B4F52BF4C001F0F5C002F01DEF02F008
:100300000900F6CFF3F0F7CFF4F0F5509EA8FED732
:10031000AD6EF3C0F6FFF4C0F7FFF22FF1D728EF70
:1003200002F0EACFFAF0E9CFF9F0F3AF08D0F98F95
:10033000F9A9F92BF21FF31FF22BD8B4F32BF339E1
:10034000F009F56FF527E20FF66F320FF86FF351F2
:100350000F0BF627F627F827E90FF76FF727F72790
:10036000F2390F0BF727F827F737F837F81FF83768
:10037000F2510F0BF827F537070EF46F0A0EF70747
:10038000F827FDE3F607F727FDE3F507F627FDE37A
:10039000F407F527FDE3EA6AF40EE96E070EF91596
:1003A000F99DED52F91507E1F9B9EE52F9B903D00B
:1003B000200E006E20D0E926000EEA22E950F8084F
:1003C00003E1EA5201E1F98DEF50006E08E1F9BD59
:1003D00006D0F9B914D0F9B702D0200E0BD0F9AF7E
:1003E00006D02D0E006EED50F99DF99F04D0F987CF
:1003F000F999300E002600509EA8FED7AD6EEE5043
:10040000F9ADDCD72FEF02F09EAAFED7AECFF1F008
:1004100063AE2DD07950792A036A720FE96E000E0F
:100420000320EA6EF1C0EFFFF1510D0820E1639E59
:10043000796AF36B720EF26F74D602C071F001C06C
:1004400070F07C0EF66E040EF76E0C0EF26F58D73D
:10045000100EE96E71C0F3F070C0F2F062D72E0E8C
:100460009EA8FED7AD6E0A0E9EA8FED7AD6EF151C6
:10047000670801E1638E9E9A30EF00F054686520B2
:100480007961772069733A20256C642E0A00969072
:100490008D708E0E806F040E816FFFEF08F063B2D7
:1004A00005D095908C8094968B9604D095908C90E6
:1004B00094968B8660C002F05FC001F00232013278
:1004C00002320132023201C0BBFF02320230300B75
:1004D000006EBA50CF0B0010BA6E9E0E876F040EDE
:1004E000886FFFEF08F063B005D094988B88949ADA
:1004F0008B9A04D094988B98949A8B8A62C002F05D
:1005000061C001F00232013202320132023201C016
:10051000BEFF02320230300B006EBD50CF0B001018
:10052000BD6EE60E8E6F040E8F6FFFEF08F0C451A4
:10053000016AC35D03E2C3C000F00CD0006A080E7C
:10054000C56FC3370036C451005CD8B0006E0136A9
:10055000C52FF7D71200200EBEA9300EBF6FBDC049
:1005600000F0BDAF08D0001E002A00C0BDF02D0E67
:10057000BF6FBE8FBE810150BDC0C3F0640EC46F9B
:10058000D6DF00C0BDF0300E0124C06FBDC0C3F087
:100590000A0EC46FCCDF300E0024C26F300E01246F
:1005A000C16FBFC000F0300EC05D04E0BE83BEBFAF
:1005B000BE8512D0BFC0C0F0200EBF6F300EC15D2F
:1005C00004E0BE81BEBFBE8307D0D8A4BE8104E1D3
:1005D000C0C0C1F0200EC06FBEB505D0BEB307D0FD
:1005E000BEB109D00CD0BF519EA8FED7AD6EC05190
:1005F0009EA8FED7AD6EC1519EA8FED7AD6EC2516A
:100600009EA8FED7AD6E0AEF03F065C0BDF0180ED0
:10061000BE6FA1D70A0E9EA8FED7AD6E0D0E9EA886
:10062000FED7AD6E0A0E956F060E966FFFEF08F0BF
:10063000C282C2B2FED7C4CF03F0C3CFC6F0C4504B
:10064000C76F010806E303E1C651F30802E3638ABA
:1006500001D0639A006A63BC008A63500018200BC3
:1006600003E063BA01D0652A6550070801E2656AB4
:10067000639C63BA638C300E9C6F060E9D6FFFEF18
:1006800008F08E0E006ECDC001F0CCC002F0036AFF
:10069000CDAF05D0011E021E022A01E1012A01523E
:1006A00009E102C001F0026A080E005E015202E197
:1006B000006A0AD0D89001BE04D002360136000686
:1006C000F9D7CDBF01D0019E1200DC51D8B471D052
:1006D000006EE051D8B46DD0002604E3810E0026F0
:1006E00068E204D07F0E005E64E363E0DDC0E4F006
:1006F000E151E41BDD8FE18FDF51E303F4CFE6F03E
:10070000DE51E203F4CF03F0F3CFE5F0E303F3505F
:10071000E627F450E523000E0322DF51E203F350F5
:10072000E627F450E523000E026A03220222DD517F
:10073000E303F350E527F4500322000E0222DD51BB
:10074000E203F3500326F4500222000E016A012254
:10075000DF51E103F350E527F4500322000E02229B
:100760000122DE51E103F3500326F4500222000E71
:100770000122DD51E103F3500226F4500122002A48
:1007800001BE05D0E5370336023601360006000EFD
:10079000E5AF0AD0032A02220122015005E10250EE
:1007A00003E1035001E1002AE4BF018EE4AF019EA2
:1007B00004D0006A016A026A036A1200B60E006E73
:1007C000036A026A016ACC91CBAF0CD0CC81C81FFE
:1007D000C91FCA1FCB1FC82B05E1C92B03E1CA2BB8
:1007E000D8B4CB2BC851C911CA11CB1102E1006A90
:1007F0000FD0D89001BE09D0C837C937CA37CB3718
:10080000033602360136002EF4D7019ECCB1018E9C
:10081000C5EF05F0800ED8B2E51BEA6BEB6BE1C0CB
:10082000E9F0E551E91BE051D8B4DCD0E86F006E87
:10083000E451D8B4E0D0E85FD8B481D03DE3E5C05E
:10084000EEF0EE8FE6C0EDF0E7C0ECF0EB6BD89089
:10085000EE33ED33EC33EB33E82FF8D7E9AF03D0C9
:10086000EA81DDD0EA91E891EA89EA6AE30EE96E6D
:10087000E9D0EA99E9BF0AD0E8A113D0EE33ED330D
:10088000EC33EB33002AD8B4C5D00BD0EEBF0CD07C
:10089000D890EB37EC37ED37EE370006D8B4BAD046
:1008A000F5D7EA8D6BD0EA9DE1C0E9F0E1AF02D067
:1008B000EE8FA9D0EE9FA7D0E4C0E8F0E4C000F02E
:1008C000E051E85FE1C0EEF0EE8FE2C0EDF0E3C092
:1008D000ECF0EB6BD890EE33ED33EC33EB33E82FE9
:1008E000F8D7E9AF03D0EA839AD0EA93E891EA8B8C
:1008F000EA6AE70EE96EA6D0EA9BE9BF0AD0E8A152
:1009000013D0EE33ED33EC33EB33002AD8B482D07E
:100910000BD0EEBF0CD0D890EB37EC37ED37EE377D
:100920000006D8B477D0F5D7EA8F28D0EA9FE5C083
:10093000E9F0E5AF02D0EE8F66D0EE9F64D0E5C05F
:10094000EEF0EE8FE6C0EDF0E7C0ECF0E9AF04D0DA
:10095000EE9FEA8564D0EA95EB6BE891EA6AE30ED4
:10096000E96E70D0E9BF1CD0E1C0E9F0E8A106D083
:10097000EE33ED33EC33EB33002A4CE0EBAF0BD02E
:10098000EC2B09E1ED2B07E1EE2B05E1EE33ED3326
:10099000EC33002A3FE0EABD86D7EABFC7D71CD0B8
:1009A000800EEE1BEEAF04D03AD0E5C0E9F00AD0DD
:1009B000E1C0E9F0EE5306E1ED5304E1EC5302E14E
:1009C000006A21D0EEBF08D0D890EB37EC37ED3776
:1009D000EE37002EF7D71ED0E9AF02D0EE8F13D03E
:1009E000EE9F11D0E4C000F0E5C0EEF0E6C0EDF0FF
:1009F000E7C0ECF008D0E0C000F0E1C0EEF0E2C0EB
:100A0000EDF0E3C0ECF0EEC001F0EDC002F0ECC0A0
:100A100003F034D0006A016A026A036A2FD0EB6BDC
:100A2000EC1FED1FEE1FEB1FEB2B05E1EC2B03E1A1
:100A3000ED2B01E1EE2BEAB115D7EAB356D7EAB5B3
:100A40008AD7B3D7EF50EC2705E3ED2B03E1EE2B6C
:100A5000D8B4E881ED52EF50ED2703E3EE2BD8B484
:100A6000E881ED52EF50EFBE01D0800AEE27D8B0FA
:100A7000E881EAB9FED6EABB3FD774D712008E0EE2
:100A8000006EDC51005EDDC002F0DEC001F0028EBF
:100A9000005209E0D890025202E1015204E0023211
:100AA0000132002EF7D7DDAF05D0011E021E012A4C
:100AB000D8B4022A1200EA6AC80EE96EEF500DE0BF
:100AC000060E016E006A002EFED7012EFBD77B0EAC
:100AD000006E002EFED7EF2EF3D7A7EF06F0595089
:100AE000705C006E5A50715800C04DF04E6E4EBE94
:100AF0000AD04E5203E14D50000805E24D1E4E1E35
:100B00004D2AD8B44E2A1FC0C8F02050800AC96FA1
:100B100021C0CAF022C0CBF04EC0CDF04DC0CCF009
:100B2000B0DDCBC0DFF0CAC0DEF0C9C0DDF0C8C0A8
:100B3000DCF003C0E3F002C0E2F001C0E1F000C06D
:100B4000E0F0C3DD03C02EF002C02DF001C02CF098
:100B500000C02BF04DC000F04EC001F0026A036AE5
:100B60004EAE02D00206030600505126015052221A
:100B7000025053220350542254C0CBF053C0CAF049
:100B800052C0C9F051C0C8F019D603C05EF002C00F
:100B90005DF001C05CF000C05BF026C0DFF025C056
:100BA000DEF024C0DDF023C0DCF05EC0E3F05DC009
:100BB000E2F05CC0E1F05BC0E0F087DD03C032F042
:100BC00002C031F001C030F000C02FF0D89047349F
:100BD000036A370FE96E000E0320EA6E4EC0ECFF89
:100BE000ED524DC0EFFF472A070E471647C048F0A9
:100BF0006D6A6C6A4A6A496A6D5219E16C50030861
:100C000016E3D8904834036A370FE96E000E0320CC
:100C1000EA6EECCF03F0ED52EF50492603504A2222
:100C2000482A070E48166C2AD8B46D2AE5D76D6A93
:100C30006C6A4C6A4B6A6D5219E16C50030816E3FA
:100C4000D8904834036A370FE96E000E0320EA6E2D
:100C5000ECCF03F0ED52EF504B2603504C22482AC4
:100C6000070E48166C2AD8B46D2AE5D74B50495C5C
:100C70004F6E4C504A58506E50C0CDF04FC0CCF023
:100C800000DD2AC0DFF029C0DEF028C0DDF027C07B
:100C9000DCF003C0E3F002C0E2F001C0E1F000C00C
:100CA000E0F013DD03C036F002C035F001C034F0CF
:100CB00000C033F0D8922EC0E3F02DC0E2F02CC07B
:100CC000E1F02BC0E0F036C0E7F035C0E6F034C00C
:100CD000E5F033C0E4F09EDD03C0CBF002C0CAF003
:100CE00001C0C9F000C0C8F0D89203C0E3F002C050
:100CF000E2F001C0E1F000C0E0F032C0E7F031C046
:100D0000E6F030C0E5F02FC0E4F084DD03C0DFF092
:100D100002C0DEF001C0DDF000C0DCF0B0DE02C0D9
:100D200056F001C055F056AE03D0586A576A0CD041
:100D300056BE06D05650000803E2586A576804D0E1
:100D400056C058F055C057F0020EC86FB4D6DE0E2C
:100D5000A36F0A0EA46FFFEF08F08E0E006EDDC0C9
:100D600001F0DCC002F0036A015209E102C001F0A7
:100D7000026A080E005E015202E1006A08D0D890B3
:100D800001BE04D0023601360006F9D7019E1200DA
:100D90006550020819E3715203E17050B3080BE289
:100DA000C80ED88057545F6E000E5854606E626A49
:100DB000C80E616E09D0606AC80E5F6ED880575445
:100DC000616E000E5854626E65500308D8A499D025
:100DD00063B497D0626A616A606A5F6A63A603D08F
:100DE0005A6A5A0E596E63A804D0010E5A6E0E0E3E
:100DF000596E715203E17050590802E263B60AD08D
:100E0000715000080AE2FF0A03E170500D0805E284
:100E100063A803D06380639202D06390638258C05A
:100E2000DDF057C0DCF099DF03C0DFF002C0DEF078
:100E300001C0DDF000C0DCF0330EE36FE26FE16F64
:100E40007E0EE06F42DC03C0DFF002C0DEF001C0C6
:100E5000DDF000C0DCF0D89203C0E3F002C0E2F0A5
:100E600001C0E1F000C0E0F0E76BE66B340EE56F27
:100E7000850EE46FCFDC03C0DFF002C0DEF001C0FE
:100E8000DDF000C0DCF0FBDD02C062F001C061F00B
:100E900058C0DDF057C0DCF060DF03C0DFF002C0F7
:100EA000DEF001C0DDF000C0DCF0330EE36FE26F76
:100EB000E16F7E0EE06F09DC03C0DFF002C0DEF000
:100EC00001C0DDF000C0DCF0D89203C0E3F002C046
:100ED000E2F001C0E1F000C0E0F0E76BE66B340E39
:100EE000E56F850EE46F96DC03C0DFF002C0DEF034
:100EF00001C0DDF000C0DCF0C2DD02C060F001C066
:100F00005FF06550030803E26550040802E263A441
:100F100039D063A619D0715203E1705059080BE221
:100F2000C80ED88057545F6E000E5854606E626AC7
:100F3000C80E616E09D0606AC80E5F6ED8805754C3
:100F4000616E000E5854626E63A81CD07150000888
:100F500010E2FF0A03E170500D080BE2C80ED880C2
:100F600057545F6E000E5854606E626AC80E616E10
:100F700009D0606AC80E5F6ED8805754616E000E4B
:100F80005854626E6550040805E26394626A616AAF
:100F9000606A5F6A900EAA6F0D0EAB6FFFEF08F0EC
:100FA0006550030801E1642A6450020803E163907C
:100FB00063926384A00EB16F0F0EB26FFFEF08F063
:100FC000928880B803D06396638802D06386639862
:100FD000C00EB86F0F0EB96FFFEF08F0F86AD09E21
:100FE000078E226A216A206A7F0E1F6E266A256A92
:100FF000246A236A2A6A296A286A276A476A546A1D
:10100000536A526A516A5A6AB40E596E6390639277
:101010006394646A63866398656A639A639C716A81
:10102000706AB886080EAF6E020EB06EA60EAC6E79
:10103000900EAB6E00000000639EC150C00B0F0904
:10104000C16E070EB46E196A1A6A376A386A396A4D
:101050003A6A3B6A3C6A3D6A3E6A3F6A406A416A54
:10106000426A436A446A456A466A000E0609CA6EC5
:10107000FF0ECB6E94948B940C0EBD6EB76AB66A5D
:1010800094928B92BA6EFF0E936E000E956E9690B0
:10109000969296949696010E926EF19EC050C00B59
:1010A0000209C06EC08EC280C150C00B0E09C16E55
:1010B000000E016EC250C30B0110C26E676A666AF1
:1010C000696A686A6B6A010E6A6E6F6A6E6E9D8AE3
:1010D000C00EF212928A80BA9CD07B6A7D6A0A0E98
:1010E0007C6E7F6A7E6A8E0E806F040E816F826BCB
:1010F000846B010E836F866B856B9E0E876F040E6B
:10110000886F896B8B6B010E8A6F8D6B8C6BE60E13
:101110008E6F040E8F6F906B926B0A0E916F946BB3
:10112000010E936F0A0E956F060E966F976B996B73
:10113000010E986F9B6B9A6B300E9C6F060E9D6F25
:101140009E6BA06B010E9F6FA26BA16BDE0EA36F57
:101150000A0EA46FA56BA76B010EA66FA96BA86BF7
:10116000900EAA6F0D0EAB6FAC6BAE6BC80EAD6F71
:10117000B06B020EAF6FA00EB16F0F0EB26FB36BFC
:10118000B56B010EB46FB76BB66BC00EB86F0F0EB8
:10119000B96F7A6A850ECD6E3C0ECF6EB00ECE6EF4
:1011A0009E90D8907A34006E57EC00F0026E010EDB
:1011B000002457EC00F0036E03C0EAFF02C0E9FF11
:1011C000EFCF02F0E92AEFCF00F0ECCF01F0EC2AEC
:1011D000EFCF03F002E1EC2AED52EC50015C10E19C
:1011E0000050035C0DE1ED52EE6AEF6A02BE08D0DA
:1011F000EC52ECCFFAFFED52EFCFE8FFF96E0001B1
:101200007A2A090E7A5CCDE17A6A9EB0C5D7FDD7FD
:061210007A6860D70300BC
:020000040030CA
:0E00000000C2181E008781000FC00FE00F40E5
:00000001FF
;PIC18F4520
;CRC=007E  CREATED="26-Jun-20 07:52"
