:1000000032EF00F0F76A140FF66E000EF7220900C7
:10001000F550120005000C0013001A0093908A702E
:100020001C0E0A6E000E0B6E9BEF00F012009392F6
:100030008A722E0E116E000E126E9BEF00F01200EF
:1000400093948A74400E186E000E196E9BEF00F0A8
:10005000120093968A76520E1F6E000E206E9BEF52
:1000600000F01200F86AD09EC150C00B0F09C16E9B
:10007000070EB46E000E936E056A076A190E066EBF
:10008000096A086A1C0E0A6E000E0B6E0C6A0E6A74
:10009000320E0D6E106A010E0F6E2E0E116E000ED6
:1000A000126E136A156A640E146E176A020E166ECB
:1000B000400E186E000E196E1A6A1C6AC80E1B6E6E
:1000C0001E6A030E1D6E520E1F6E000E206E046A15
:1000D000880ED56ED80ED76EF00ED66EF294D890EC
:1000E0000434006E8FDF026E010E00248BDF036E7E
:1000F00003C0EAFF02C0E9FFEFCF02F0E92AEFCF29
:1001000000F0ECCF01F0EC2AEFCF03F002E1EC2A93
:10011000ED52EC50015C10E10050035C0DE1ED523A
:10012000EE6AEF6A02BE08D0EC52ECCFFAFFED5255
:10013000EFCFE8FFF96E0001042A040E045CCFE162
:10014000046AD650D7CF03F0F2B4C4D7FAD7046804
:020150000300AA
:020000040030CA
:0E00000000CF1E1E008781000FC00FE00F40D2
:00000001FF
;PIC18F4520
;CRC=BA34  CREATED="11-May-20 22:28"
