:1000000058EF00F0F76A140FF66E000EF7220900A1
:10001000F550120006000D001800959E8C7E1A0EF9
:100020000B6E000E0C6EB9EF00F012001550145C50
:1000300003E31550145C04D0020ED8801554142428
:10004000000A11E01550145CFDE0160E1524E96E4F
:10005000EA6AD8B0EA2AEFCF01F0152A010E151688
:10006000936A01C08AFF2C0E126E000E136EB9EF58
:1000700000F01200042A958083B013D0160E1424C9
:10008000E96EEA6AD8B0EA2A1428010B006E15500E
:10009000005C02E1000E05D000C014F004C0EFFFC8
:1000A000010E740E1D6E000E1E6EB9EF00F01200F0
:1000B000F86AD09EC150C00B0F09C16E070EB46E16
:1000C000000E936E010E956E066A086AC80E076EE2
:1000D0000A6A010E096E1A0E0B6E000E0C6E0D6A86
:1000E0000F6A0A0E0E6E116A106A146A156A2C0ED7
:1000F000126E000E136E186A1A6A010E196E1C6ACF
:100100001B6A740E1D6E000E1E6E056A880ED56E7B
:10011000FC0ED76E180ED66EF294D8900534006E91
:1001200071DF026E010E00246DDF036E03C0EAFF73
:1001300002C0E9FFEFCF02F0E92AEFCF00F0ECCFE9
:1001400001F0EC2AEFCF03F002E1EC2AED52EC5083
:10015000015C10E10050035C0DE1ED52EE6AEF6AC4
:1001600002BE08D0EC52ECCFFAFFED52EFCFE8FF21
:10017000F96E0001052A030E055CCFE1056AD65031
:0E018000D7CF03F0F2B4C4D7FAD70568030056
:020000040030CA
:0E00000000CF1E1E008781000FC00FE00F40D2
:00000001FF
;PIC18F4520
;CRC=7CAF  CREATED="11-May-20 22:37"
