:1000000056EF01F0F76A140FF66E000EF7220900A2
:10001000F55012000B0012001900959E8C7E1A0EEE
:10002000106E000E116ED8EF01F01200576A586A78
:10003000010E596EDA6AD96A5C6A4F0E5B6EEA6A23
:10004000530EE96E5CC0E2FF5BC0E1FF59C05AF09D
:10005000D890E550EE02F3505722F45058225A2E11
:10006000F7D757C0DEFF58C057F0586AD8B0582AA3
:100070005B2AD8B45C2A592A59500508E0E15DEFA3
:1000800000F0C282C2B2FED7C3CF04F0C4CF05F0E5
:100090004E6A4D6A05C04CF004C04BF04EC052F0A1
:1000A0004DC051F005C050F004C04FF0566A556A7B
:1000B000130E546E880E536EB9D703C009F002C0F8
:1000C00008F001C007F000C006F007C006F008C045
:1000D00007F009C008F0096A09320832073206320F
:1000E00009320832073206323F0E0916820E176EA9
:1000F000000E186ED8EF01F012000900F6CF4CF098
:10010000F7CF4DF0F5509EA8FED7AD6E4CC0F6FF70
:100110004DC0F7FF4B2EF1D71200D8B203D0EA6AD8
:100120005F0EE96E006A016A026A036A5F6A606ACA
:10013000616A626A5E505D105C105B102CE0200EFC
:10014000636ED8905736583659365A365F36603611
:10015000613662365E50625C08E15D50615C05E1CB
:100160005C50605C02E15B505F5C0FE35B505F5E84
:100170005C50D8A05C3C605E5D50D8A05D3C615E88
:100180005E50D8A05E3C625ED880003601360236F2
:100190000336632ED6D75FC0EFFF60C0ECFF61C0AF
:1001A000ECFF62C0ECFF1200E9504F6E3B0E566E42
:1001B0009A0E556ECA0E546E536A0A0E516ED8824C
:1001C000EA6A4B0EE96E4EC05AF04DC059F04CC071
:1001D00058F04BC057F056C05EF055C05DF054C0AB
:1001E0005CF053C05BF099DF015000520FE15150B9
:1001F000010A0CE04F500BE00F0B515C01E00DE2E7
:100200004FBE0BD04FBC03D0200E02D04F6A300E31
:10021000002600509EA8FED7AD6ED89256C05AF068
:1002200055C059F054C058F053C057F05E6A5D6A2B
:100230005C6A0A0E5B6E71DF03C056F002C055F0B7
:1002400001C054F000C053F0512EB9D73AEF01F07D
:10025000900EF66E020EF76E130E4B6E4EDF410ED1
:10026000E96E09C04EF008C04DF007C04CF006C062
:100270004BF09AD7A60EF66E020EF76E040E4B6E7A
:100280003CDF500E1E6E020E1F6ED8EF01F0120002
:100290004D6561737572656420566F6C7461676536
:1002A000203D20254C756D566E720000F86AD09E78
:1002B000B886110EAF6E040EB06EA60EAC6E900E28
:1002C000AB6E00000000C150C00B0F09C16E070EDD
:1002D000B46E000E956E956A8C6AFF0E926EC150D8
:1002E000C00BC16EC050C00B0209C06EC08EC28070
:1002F000000E016EC250C30B0110C26E070E006EDD
:10030000002EFED700D000000B6A0D6A020E0C6EA4
:100310000F6A0E6A1A0E106E000E116E126A146ABF
:10032000140E136E166A010E156E820E176E000EF5
:10033000186E196A1B6A140E1A6E1D6A030E1C6E63
:10034000500E1E6E020E1F6E0A6A810ED56E0B0EC7
:10035000D76EDC0ED66EF294D8900A34006E52DE60
:10036000026E010E00244EDE036E03C0EAFF02C0DF
:10037000E9FFEFCF02F0E92AEFCF00F0ECCF01F078
:10038000EC2AEFCF03F002E1EC2AED52EC50015CD5
:1003900010E10050035C0DE1ED52EE6AEF6A02BE1F
:1003A00008D0EC52ECCFFAFFED52EFCFE8FFF96E38
:1003B00000010A2A030E0A5CCFE10A6AD650D7CFA1
:0C03C00003F0F2B4C4D7FAD70A680300B7
:020000040030CA
:0E00000000CF1E1E008781000FC00FE00F40D2
:00000001FF
;PIC18F4520
;CRC=664F  CREATED="11-May-20 23:01"
